{
  "transactions": [
    {
      "hash": "0x90924a000f59e29669594522f02b7639f6253bd5acf44684e9e5b48bff0fd02b",
      "transactionType": "CALL",
      "contractName": null,
      "contractAddress": "0x1b11fed0ce52243c039a54371920da8f701d6231",
      "function": "mint(address,bytes32[])",
      "arguments": [
        "0xd4233422150d6779c23E7BFd497333b94A1D2222",
        "[0x40ff9557ba7cd4991b3134ec0f377a26daeb59101c640cd473f9bda3809ace53, 0xe51b722cb73595b07e2c2abe1360ce67e3a6439a8f0f4824cb18e59b7b423297]"
      ],
      "transaction": {
        "from": "0x002a5e5e33990194fb51e6de9a86b6aabb293cbb",
        "to": "0x1b11fed0ce52243c039a54371920da8f701d6231",
        "gas": "0x4e363",
        "value": "0x470de4df820000",
        "input": "0x7bf32270000000000000000000000000d4233422150d6779c23e7bfd497333b94a1d22220000000000000000000000000000000000000000000000000000000000000040000000000000000000000000000000000000000000000000000000000000000240ff9557ba7cd4991b3134ec0f377a26daeb59101c640cd473f9bda3809ace53e51b722cb73595b07e2c2abe1360ce67e3a6439a8f0f4824cb18e59b7b423297",
        "nonce": "0x96",
        "chainId": "0xaa36a7"
      },
      "additionalContracts": [],
      "isFixedGasLimit": false
    }
  ],
  "receipts": [
    {
      "status": "0x1",
      "cumulativeGasUsed": "0x143f99d",
      "logs": [
        {
          "address": "0x1b11fed0ce52243c039a54371920da8f701d6231",
          "topics": [
            "0xddf252ad1be2c89b69c2b068fc378daa952ba7f163c4a11628f55a4df523b3ef",
            "0x0000000000000000000000000000000000000000000000000000000000000000",
            "0x000000000000000000000000d4233422150d6779c23e7bfd497333b94a1d2222",
            "0x0000000000000000000000000000000000000000000000000000000000000001"
          ],
          "data": "0x",
          "blockHash": "0x41aac95d6bc74e5b0d8a3bf01488bba84d587ee63309e78da1941ec3604131fa",
          "blockNumber": "0xa6ecf1",
          "blockTimestamp": "0x6a181f4c",
          "transactionHash": "0x90924a000f59e29669594522f02b7639f6253bd5acf44684e9e5b48bff0fd02b",
          "transactionIndex": "0xa6",
          "logIndex": "0x1dd",
          "removed": false
        },
        {
          "address": "0x1b11fed0ce52243c039a54371920da8f701d6231",
          "topics": [
            "0x769eff512f395b679667e0062a0e31dad5d22dbc7e6b87f16c3de7e85e663460",
            "0x0000000000000000000000000000000000000000000000000000000000000002",
            "0x000000000000000000000000d4233422150d6779c23e7bfd497333b94a1d2222"
          ],
          "data": "0x",
          "blockHash": "0x41aac95d6bc74e5b0d8a3bf01488bba84d587ee63309e78da1941ec3604131fa",
          "blockNumber": "0xa6ecf1",
          "blockTimestamp": "0x6a181f4c",
          "transactionHash": "0x90924a000f59e29669594522f02b7639f6253bd5acf44684e9e5b48bff0fd02b",
          "transactionIndex": "0xa6",
          "logIndex": "0x1de",
          "removed": false
        }
      ],
      "logsBloom": "0x04000200000000000000000000000000000000000000000000000080010000000000000000000000000000000000000000000000000000000004000000040000020000000000000000000008000000000000000000040000000000000000000000000000024000000000000000000800000000000000000000000010000000000000000000000000000000000000000000000000000000000000000000000000000000000008000100000100000000000000000000000000000000000000000000000002000000000000000000000000000000000000000000000000000060000000000000000000000000000000000000000000008000080000000000000000",
      "type": "0x2",
      "transactionHash": "0x90924a000f59e29669594522f02b7639f6253bd5acf44684e9e5b48bff0fd02b",
      "transactionIndex": "0xa6",
      "blockHash": "0x41aac95d6bc74e5b0d8a3bf01488bba84d587ee63309e78da1941ec3604131fa",
      "blockNumber": "0xa6ecf1",
      "gasUsed": "0x389fc",
      "effectiveGasPrice": "0x22d6aa7e0",
      "from": "0x002a5e5e33990194fb51e6de9a86b6aabb293cbb",
      "to": "0x1b11fed0ce52243c039a54371920da8f701d6231",
      "contractAddress": null
    }
  ],
  "libraries": [],
  "pending": [],
  "returns": {
    "0": {
      "internal_type": "bool",
      "value": "true"
    }
  },
  "timestamp": 1779965773461,
  "chain": 11155111,
  "commit": null
}