{
  "transactions": [
    {
      "hash": "0x64ed846d5439477a30610844d66ca8c7f76e4743e877a2f0a1d6e978bc80e0d9",
      "transactionType": "CALL",
      "contractName": null,
      "contractAddress": "0x1998b65576ca8d8f57e68f5c1dd569c78c6264bd",
      "function": "mint(address,bytes32[])",
      "arguments": [
        "0x002a5e5E33990194FB51E6dE9a86b6aabb293cBB",
        "[0xb020d7f4296a1630fca94fa7b375d844bdf7a6eb80d6c57d65896a2cad9a1dce, 0x485cced89826cf7e0bb1a1f764abd959274947ab8970b4ee860ef2762bd68d0a]"
      ],
      "transaction": {
        "from": "0x002a5e5e33990194fb51e6de9a86b6aabb293cbb",
        "to": "0x1998b65576ca8d8f57e68f5c1dd569c78c6264bd",
        "gas": "0x35251",
        "value": "0x2386f26fc10000",
        "input": "0x7bf32270000000000000000000000000002a5e5e33990194fb51e6de9a86b6aabb293cbb00000000000000000000000000000000000000000000000000000000000000400000000000000000000000000000000000000000000000000000000000000002b020d7f4296a1630fca94fa7b375d844bdf7a6eb80d6c57d65896a2cad9a1dce485cced89826cf7e0bb1a1f764abd959274947ab8970b4ee860ef2762bd68d0a",
        "nonce": "0x8c",
        "chainId": "0xaa36a7"
      },
      "additionalContracts": [],
      "isFixedGasLimit": false
    }
  ],
  "receipts": [
    {
      "status": "0x1",
      "cumulativeGasUsed": "0x2468329",
      "logs": [
        {
          "address": "0x1998b65576ca8d8f57e68f5c1dd569c78c6264bd",
          "topics": [
            "0xddf252ad1be2c89b69c2b068fc378daa952ba7f163c4a11628f55a4df523b3ef",
            "0x0000000000000000000000000000000000000000000000000000000000000000",
            "0x000000000000000000000000002a5e5e33990194fb51e6de9a86b6aabb293cbb",
            "0x0000000000000000000000000000000000000000000000000000000000000000"
          ],
          "data": "0x",
          "blockHash": "0x6a8f3cd139832ce29ce26cedec5de07c40508e147de354237f4da139587b363d",
          "blockNumber": "0xa6b567",
          "blockTimestamp": "0x6a1571b4",
          "transactionHash": "0x64ed846d5439477a30610844d66ca8c7f76e4743e877a2f0a1d6e978bc80e0d9",
          "transactionIndex": "0x161",
          "logIndex": "0x571",
          "removed": false
        },
        {
          "address": "0x1998b65576ca8d8f57e68f5c1dd569c78c6264bd",
          "topics": [
            "0x769eff512f395b679667e0062a0e31dad5d22dbc7e6b87f16c3de7e85e663460",
            "0x0000000000000000000000000000000000000000000000000000000000000001",
            "0x000000000000000000000000002a5e5e33990194fb51e6de9a86b6aabb293cbb"
          ],
          "data": "0x",
          "blockHash": "0x6a8f3cd139832ce29ce26cedec5de07c40508e147de354237f4da139587b363d",
          "blockNumber": "0xa6b567",
          "blockTimestamp": "0x6a1571b4",
          "transactionHash": "0x64ed846d5439477a30610844d66ca8c7f76e4743e877a2f0a1d6e978bc80e0d9",
          "transactionIndex": "0x161",
          "logIndex": "0x572",
          "removed": false
        }
      ],
      "logsBloom": "0x00000000000000000000001000000000000000000000010000000000010000000000000000000000000000000000000000000000000000000000000000040000000000000000000000000008000000000000000000040000800000000000000000000000020000000000000000000800000000000000000000000010000000000000000000000000000000000000000000000000008000000000000000000000000000000008010100000000000010000000000000000000000000000000000000000002000000000000000000000000000000000000000000000000000060000000000000000000000000000000000000000000000000000000000000000000",
      "type": "0x2",
      "transactionHash": "0x64ed846d5439477a30610844d66ca8c7f76e4743e877a2f0a1d6e978bc80e0d9",
      "transactionIndex": "0x161",
      "blockHash": "0x6a8f3cd139832ce29ce26cedec5de07c40508e147de354237f4da139587b363d",
      "blockNumber": "0xa6b567",
      "gasUsed": "0x2456a",
      "effectiveGasPrice": "0x12ef37906",
      "from": "0x002a5e5e33990194fb51e6de9a86b6aabb293cbb",
      "to": "0x1998b65576ca8d8f57e68f5c1dd569c78c6264bd",
      "contractAddress": null
    }
  ],
  "libraries": [],
  "pending": [],
  "returns": {
    "0": {
      "internal_type": "bool",
      "value": "true"
    }
  },
  "timestamp": 1779790262056,
  "chain": 11155111,
  "commit": null
}