{
  "transactions": [
    {
      "hash": "0xc54a3815dac6680bca9d9eb79fca2a5571c83152db3672bb112b09713c060d2b",
      "transactionType": "CALL",
      "contractName": null,
      "contractAddress": "0x1b11fed0ce52243c039a54371920da8f701d6231",
      "function": "mint(address,bytes32[])",
      "arguments": [
        "0x002a5e5E33990194FB51E6dE9a86b6aabb293cBB",
        "[0x40ff9557ba7cd4991b3134ec0f377a26daeb59101c640cd473f9bda3809ace53, 0xe51b722cb73595b07e2c2abe1360ce67e3a6439a8f0f4824cb18e59b7b423297]"
      ],
      "transaction": {
        "from": "0x002a5e5e33990194fb51e6de9a86b6aabb293cbb",
        "to": "0x1b11fed0ce52243c039a54371920da8f701d6231",
        "gas": "0x5dd16",
        "value": "0x2386f26fc10000",
        "input": "0x7bf32270000000000000000000000000002a5e5e33990194fb51e6de9a86b6aabb293cbb0000000000000000000000000000000000000000000000000000000000000040000000000000000000000000000000000000000000000000000000000000000240ff9557ba7cd4991b3134ec0f377a26daeb59101c640cd473f9bda3809ace53e51b722cb73595b07e2c2abe1360ce67e3a6439a8f0f4824cb18e59b7b423297",
        "nonce": "0x95",
        "chainId": "0xaa36a7"
      },
      "additionalContracts": [],
      "isFixedGasLimit": false
    }
  ],
  "receipts": [
    {
      "status": "0x1",
      "cumulativeGasUsed": "0xfd3513",
      "logs": [
        {
          "address": "0x1b11fed0ce52243c039a54371920da8f701d6231",
          "topics": [
            "0xddf252ad1be2c89b69c2b068fc378daa952ba7f163c4a11628f55a4df523b3ef",
            "0x0000000000000000000000000000000000000000000000000000000000000000",
            "0x000000000000000000000000002a5e5e33990194fb51e6de9a86b6aabb293cbb",
            "0x0000000000000000000000000000000000000000000000000000000000000000"
          ],
          "data": "0x",
          "blockHash": "0xfc9dc6d1e6bfcd6c50e1596a35cec51eabcbeda35e7ee87eb78a7049fd47a743",
          "blockNumber": "0xa6ecdd",
          "blockTimestamp": "0x6a181e50",
          "transactionHash": "0xc54a3815dac6680bca9d9eb79fca2a5571c83152db3672bb112b09713c060d2b",
          "transactionIndex": "0x8d",
          "logIndex": "0x194",
          "removed": false
        },
        {
          "address": "0x1b11fed0ce52243c039a54371920da8f701d6231",
          "topics": [
            "0x769eff512f395b679667e0062a0e31dad5d22dbc7e6b87f16c3de7e85e663460",
            "0x0000000000000000000000000000000000000000000000000000000000000001",
            "0x000000000000000000000000002a5e5e33990194fb51e6de9a86b6aabb293cbb"
          ],
          "data": "0x",
          "blockHash": "0xfc9dc6d1e6bfcd6c50e1596a35cec51eabcbeda35e7ee87eb78a7049fd47a743",
          "blockNumber": "0xa6ecdd",
          "blockTimestamp": "0x6a181e50",
          "transactionHash": "0xc54a3815dac6680bca9d9eb79fca2a5571c83152db3672bb112b09713c060d2b",
          "transactionIndex": "0x8d",
          "logIndex": "0x195",
          "removed": false
        }
      ],
      "logsBloom": "0x00000000000000000000000000000000000000000000010000000000010000000000000000000000000000000000000000000000000000000004000000040000020000000000000000000008000000000000000000040000800000000000000000000000024000000000000000000800000000000000000000000010000000000000000000000000000000000000000000000000008000000000000000000000000000000008000100000000000000000000000000000000000000000000000000000002000000000000000000000000000000000000000000000000000060000000000000000000000000000000000000000000000000000000000000000000",
      "type": "0x2",
      "transactionHash": "0xc54a3815dac6680bca9d9eb79fca2a5571c83152db3672bb112b09713c060d2b",
      "transactionIndex": "0x8d",
      "blockHash": "0xfc9dc6d1e6bfcd6c50e1596a35cec51eabcbeda35e7ee87eb78a7049fd47a743",
      "blockNumber": "0xa6ecdd",
      "gasUsed": "0x40263",
      "effectiveGasPrice": "0x291ef9272",
      "from": "0x002a5e5e33990194fb51e6de9a86b6aabb293cbb",
      "to": "0x1b11fed0ce52243c039a54371920da8f701d6231",
      "contractAddress": null
    }
  ],
  "libraries": [],
  "pending": [],
  "returns": {
    "0": {
      "internal_type": "bool",
      "value": "true"
    }
  },
  "timestamp": 1779965521628,
  "chain": 11155111,
  "commit": null
}